{
	"data": {
		"bytecode": {
			"linkReferences": {},
			"object": "6080604052348015600e575f80fd5b506104608061001c5f395ff3fe608060405234801561000f575f80fd5b5060043610610029575f3560e01c806378f51cb11461002d575b5f80fd5b610047600480360381019061004291906102ae565b610049565b005b5f83511161008c576040517f08c379a0000000000000000000000000000000000000000000000000000000008152600401610083906103a4565b60405180910390fd5b5f82116100ce576040517f08c379a00000000000000000000000000000000000000000000000000000000081526004016100c59061040c565b60405180910390fd5b50505050565b5f604051905090565b5f80fd5b5f80fd5b5f73ffffffffffffffffffffffffffffffffffffffff82169050919050565b5f61010e826100e5565b9050919050565b61011e81610104565b8114610128575f80fd5b50565b5f8135905061013981610115565b92915050565b5f80fd5b5f80fd5b5f601f19601f8301169050919050565b7f4e487b71000000000000000000000000000000000000000000000000000000005f52604160045260245ffd5b61018d82610147565b810181811067ffffffffffffffff821117156101ac576101ab610157565b5b80604052505050565b5f6101be6100d4565b90506101ca8282610184565b919050565b5f67ffffffffffffffff8211156101e9576101e8610157565b5b6101f282610147565b9050602081019050919050565b828183375f83830152505050565b5f61021f61021a846101cf565b6101b5565b90508281526020810184848401111561023b5761023a610143565b5b6102468482856101ff565b509392505050565b5f82601f8301126102625761026161013f565b5b813561027284826020860161020d565b91505092915050565b5f819050919050565b61028d8161027b565b8114610297575f80fd5b50565b5f813590506102a881610284565b92915050565b5f805f80608085870312156102c6576102c56100dd565b5b5f6102d38782880161012b565b945050602085013567ffffffffffffffff8111156102f4576102f36100e1565b5b6103008782880161024e565b93505060406103118782880161029a565b925050606085013567ffffffffffffffff811115610332576103316100e1565b5b61033e8782880161024e565b91505092959194509250565b5f82825260208201905092915050565b7f42617463682049442072657175697265640000000000000000000000000000005f82015250565b5f61038e60118361034a565b91506103998261035a565b602082019050919050565b5f6020820190508181035f8301526103bb81610382565b9050919050565b7f5175616e74697479206d75737420626520706f736974697665000000000000005f82015250565b5f6103f660198361034a565b9150610401826103c2565b602082019050919050565b5f6020820190508181035f830152610423816103ea565b905091905056fea26469706673582212209a2aecc93f51d16be416ec92b1fd5312183893b61274f32d75d16b372fcbdd7564736f6c634300081a0033",
			"opcodes": "PUSH1 0x80 PUSH1 0x40 MSTORE CALLVALUE DUP1 ISZERO PUSH1 0xE JUMPI PUSH0 DUP1 REVERT JUMPDEST POP PUSH2 0x460 DUP1 PUSH2 0x1C PUSH0 CODECOPY PUSH0 RETURN INVALID PUSH1 0x80 PUSH1 0x40 MSTORE CALLVALUE DUP1 ISZERO PUSH2 0xF JUMPI PUSH0 DUP1 REVERT JUMPDEST POP PUSH1 0x4 CALLDATASIZE LT PUSH2 0x29 JUMPI PUSH0 CALLDATALOAD PUSH1 0xE0 SHR DUP1 PUSH4 0x78F51CB1 EQ PUSH2 0x2D JUMPI JUMPDEST PUSH0 DUP1 REVERT JUMPDEST PUSH2 0x47 PUSH1 0x4 DUP1 CALLDATASIZE SUB DUP2 ADD SWAP1 PUSH2 0x42 SWAP2 SWAP1 PUSH2 0x2AE JUMP JUMPDEST PUSH2 0x49 JUMP JUMPDEST STOP JUMPDEST PUSH0 DUP4 MLOAD GT PUSH2 0x8C JUMPI PUSH1 0x40 MLOAD PUSH32 0x8C379A000000000000000000000000000000000000000000000000000000000 DUP2 MSTORE PUSH1 0x4 ADD PUSH2 0x83 SWAP1 PUSH2 0x3A4 JUMP JUMPDEST PUSH1 0x40 MLOAD DUP1 SWAP2 SUB SWAP1 REVERT JUMPDEST PUSH0 DUP3 GT PUSH2 0xCE JUMPI PUSH1 0x40 MLOAD PUSH32 0x8C379A000000000000000000000000000000000000000000000000000000000 DUP2 MSTORE PUSH1 0x4 ADD PUSH2 0xC5 SWAP1 PUSH2 0x40C JUMP JUMPDEST PUSH1 0x40 MLOAD DUP1 SWAP2 SUB SWAP1 REVERT JUMPDEST POP POP POP POP JUMP JUMPDEST PUSH0 PUSH1 0x40 MLOAD SWAP1 POP SWAP1 JUMP JUMPDEST PUSH0 DUP1 REVERT JUMPDEST PUSH0 DUP1 REVERT JUMPDEST PUSH0 PUSH20 0xFFFFFFFFFFFFFFFFFFFFFFFFFFFFFFFFFFFFFFFF DUP3 AND SWAP1 POP SWAP2 SWAP1 POP JUMP JUMPDEST PUSH0 PUSH2 0x10E DUP3 PUSH2 0xE5 JUMP JUMPDEST SWAP1 POP SWAP2 SWAP1 POP JUMP JUMPDEST PUSH2 0x11E DUP2 PUSH2 0x104 JUMP JUMPDEST DUP2 EQ PUSH2 0x128 JUMPI PUSH0 DUP1 REVERT JUMPDEST POP JUMP JUMPDEST PUSH0 DUP2 CALLDATALOAD SWAP1 POP PUSH2 0x139 DUP2 PUSH2 0x115 JUMP JUMPDEST SWAP3 SWAP2 POP POP JUMP JUMPDEST PUSH0 DUP1 REVERT JUMPDEST PUSH0 DUP1 REVERT JUMPDEST PUSH0 PUSH1 0x1F NOT PUSH1 0x1F DUP4 ADD AND SWAP1 POP SWAP2 SWAP1 POP JUMP JUMPDEST PUSH32 0x4E487B7100000000000000000000000000000000000000000000000000000000 PUSH0 MSTORE PUSH1 0x41 PUSH1 0x4 MSTORE PUSH1 0x24 PUSH0 REVERT JUMPDEST PUSH2 0x18D DUP3 PUSH2 0x147 JUMP JUMPDEST DUP2 ADD DUP2 DUP2 LT PUSH8 0xFFFFFFFFFFFFFFFF DUP3 GT OR ISZERO PUSH2 0x1AC JUMPI PUSH2 0x1AB PUSH2 0x157 JUMP JUMPDEST JUMPDEST DUP1 PUSH1 0x40 MSTORE POP POP POP JUMP JUMPDEST PUSH0 PUSH2 0x1BE PUSH2 0xD4 JUMP JUMPDEST SWAP1 POP PUSH2 0x1CA DUP3 DUP3 PUSH2 0x184 JUMP JUMPDEST SWAP2 SWAP1 POP JUMP JUMPDEST PUSH0 PUSH8 0xFFFFFFFFFFFFFFFF DUP3 GT ISZERO PUSH2 0x1E9 JUMPI PUSH2 0x1E8 PUSH2 0x157 JUMP JUMPDEST JUMPDEST PUSH2 0x1F2 DUP3 PUSH2 0x147 JUMP JUMPDEST SWAP1 POP PUSH1 0x20 DUP2 ADD SWAP1 POP SWAP2 SWAP1 POP JUMP JUMPDEST DUP3 DUP2 DUP4 CALLDATACOPY PUSH0 DUP4 DUP4 ADD MSTORE POP POP POP JUMP JUMPDEST PUSH0 PUSH2 0x21F PUSH2 0x21A DUP5 PUSH2 0x1CF JUMP JUMPDEST PUSH2 0x1B5 JUMP JUMPDEST SWAP1 POP DUP3 DUP2 MSTORE PUSH1 0x20 DUP2 ADD DUP5 DUP5 DUP5 ADD GT ISZERO PUSH2 0x23B JUMPI PUSH2 0x23A PUSH2 0x143 JUMP JUMPDEST JUMPDEST PUSH2 0x246 DUP5 DUP3 DUP6 PUSH2 0x1FF JUMP JUMPDEST POP SWAP4 SWAP3 POP POP POP JUMP JUMPDEST PUSH0 DUP3 PUSH1 0x1F DUP4 ADD SLT PUSH2 0x262 JUMPI PUSH2 0x261 PUSH2 0x13F JUMP JUMPDEST JUMPDEST DUP2 CALLDATALOAD PUSH2 0x272 DUP5 DUP3 PUSH1 0x20 DUP7 ADD PUSH2 0x20D JUMP JUMPDEST SWAP2 POP POP SWAP3 SWAP2 POP POP JUMP JUMPDEST PUSH0 DUP2 SWAP1 POP SWAP2 SWAP1 POP JUMP JUMPDEST PUSH2 0x28D DUP2 PUSH2 0x27B JUMP JUMPDEST DUP2 EQ PUSH2 0x297 JUMPI PUSH0 DUP1 REVERT JUMPDEST POP JUMP JUMPDEST PUSH0 DUP2 CALLDATALOAD SWAP1 POP PUSH2 0x2A8 DUP2 PUSH2 0x284 JUMP JUMPDEST SWAP3 SWAP2 POP POP JUMP JUMPDEST PUSH0 DUP1 PUSH0 DUP1 PUSH1 0x80 DUP6 DUP8 SUB SLT ISZERO PUSH2 0x2C6 JUMPI PUSH2 0x2C5 PUSH2 0xDD JUMP JUMPDEST JUMPDEST PUSH0 PUSH2 0x2D3 DUP8 DUP3 DUP9 ADD PUSH2 0x12B JUMP JUMPDEST SWAP5 POP POP PUSH1 0x20 DUP6 ADD CALLDATALOAD PUSH8 0xFFFFFFFFFFFFFFFF DUP2 GT ISZERO PUSH2 0x2F4 JUMPI PUSH2 0x2F3 PUSH2 0xE1 JUMP JUMPDEST JUMPDEST PUSH2 0x300 DUP8 DUP3 DUP9 ADD PUSH2 0x24E JUMP JUMPDEST SWAP4 POP POP PUSH1 0x40 PUSH2 0x311 DUP8 DUP3 DUP9 ADD PUSH2 0x29A JUMP JUMPDEST SWAP3 POP POP PUSH1 0x60 DUP6 ADD CALLDATALOAD PUSH8 0xFFFFFFFFFFFFFFFF DUP2 GT ISZERO PUSH2 0x332 JUMPI PUSH2 0x331 PUSH2 0xE1 JUMP JUMPDEST JUMPDEST PUSH2 0x33E DUP8 DUP3 DUP9 ADD PUSH2 0x24E JUMP JUMPDEST SWAP2 POP POP SWAP3 SWAP6 SWAP2 SWAP5 POP SWAP3 POP JUMP JUMPDEST PUSH0 DUP3 DUP3 MSTORE PUSH1 0x20 DUP3 ADD SWAP1 POP SWAP3 SWAP2 POP POP JUMP JUMPDEST PUSH32 0x4261746368204944207265717569726564000000000000000000000000000000 PUSH0 DUP3 ADD MSTORE POP JUMP JUMPDEST PUSH0 PUSH2 0x38E PUSH1 0x11 DUP4 PUSH2 0x34A JUMP JUMPDEST SWAP2 POP PUSH2 0x399 DUP3 PUSH2 0x35A JUMP JUMPDEST PUSH1 0x20 DUP3 ADD SWAP1 POP SWAP2 SWAP1 POP JUMP JUMPDEST PUSH0 PUSH1 0x20 DUP3 ADD SWAP1 POP DUP2 DUP2 SUB PUSH0 DUP4 ADD MSTORE PUSH2 0x3BB DUP2 PUSH2 0x382 JUMP JUMPDEST SWAP1 POP SWAP2 SWAP1 POP JUMP JUMPDEST PUSH32 0x5175616E74697479206D75737420626520706F73697469766500000000000000 PUSH0 DUP3 ADD MSTORE POP JUMP JUMPDEST PUSH0 PUSH2 0x3F6 PUSH1 0x19 DUP4 PUSH2 0x34A JUMP JUMPDEST SWAP2 POP PUSH2 0x401 DUP3 PUSH2 0x3C2 JUMP JUMPDEST PUSH1 0x20 DUP3 ADD SWAP1 POP SWAP2 SWAP1 POP JUMP JUMPDEST PUSH0 PUSH1 0x20 DUP3 ADD SWAP1 POP DUP2 DUP2 SUB PUSH0 DUP4 ADD MSTORE PUSH2 0x423 DUP2 PUSH2 0x3EA JUMP JUMPDEST SWAP1 POP SWAP2 SWAP1 POP JUMP INVALID LOG2 PUSH5 0x6970667358 0x22 SLT KECCAK256 SWAP11 0x2A 0xEC 0xC9 EXTCODEHASH MLOAD 0xD1 PUSH12 0xE416EC92B1FD5312183893B6 SLT PUSH21 0xF32D75D16B372FCBDD7564736F6C634300081A0033 "
		},
		"gasEstimates": {
			"creation": {
				"codeDepositCost": "224000",
				"executionCost": "261",
				"totalCost": "224261"
			},
			"external": {
				"mintToken(address,string,uint256,string)": "infinite"
			}
		},
		"methodIdentifiers": {
			"mintToken(address,string,uint256,string)": "78f51cb1"
		}
	},
	"abi": [
		{
			"inputs": [
				{
					"internalType": "address",
					"name": "_manufacturer",
					"type": "address"
				},
				{
					"internalType": "string",
					"name": "_batchID",
					"type": "string"
				},
				{
					"internalType": "uint256",
					"name": "_quantity",
					"type": "uint256"
				},
				{
					"internalType": "string",
					"name": "_type",
					"type": "string"
				}
			],
			"name": "mintToken",
			"outputs": [],
			"stateMutability": "pure",
			"type": "function"
		}
	]
}